{
  "address": "0xF81604386eAa508aF2e41f50A5564421427459d6",
  "abi": [
    {
      "inputs": [
        {
          "internalType": "address",
          "name": "exampleExternalContractAddress",
          "type": "address"
        }
      ],
      "stateMutability": "nonpayable",
      "type": "constructor"
    },
    {
      "anonymous": false,
      "inputs": [
        {
          "indexed": false,
          "internalType": "address",
          "name": "",
          "type": "address"
        },
        {
          "indexed": false,
          "internalType": "uint256",
          "name": "",
          "type": "uint256"
        }
      ],
      "name": "Stake",
      "type": "event"
    },
    {
      "inputs": [
        {
          "internalType": "address",
          "name": "",
          "type": "address"
        }
      ],
      "name": "balances",
      "outputs": [
        {
          "internalType": "uint256",
          "name": "",
          "type": "uint256"
        }
      ],
      "stateMutability": "view",
      "type": "function"
    },
    {
      "inputs": [],
      "name": "deadline",
      "outputs": [
        {
          "internalType": "uint256",
          "name": "",
          "type": "uint256"
        }
      ],
      "stateMutability": "view",
      "type": "function"
    },
    {
      "inputs": [],
      "name": "exampleExternalContract",
      "outputs": [
        {
          "internalType": "contract ExampleExternalContract",
          "name": "",
          "type": "address"
        }
      ],
      "stateMutability": "view",
      "type": "function"
    },
    {
      "inputs": [],
      "name": "execute",
      "outputs": [],
      "stateMutability": "nonpayable",
      "type": "function"
    },
    {
      "inputs": [],
      "name": "stake",
      "outputs": [],
      "stateMutability": "payable",
      "type": "function"
    },
    {
      "inputs": [],
      "name": "threshold",
      "outputs": [
        {
          "internalType": "uint256",
          "name": "",
          "type": "uint256"
        }
      ],
      "stateMutability": "view",
      "type": "function"
    },
    {
      "inputs": [],
      "name": "timeLeft",
      "outputs": [
        {
          "internalType": "uint256",
          "name": "",
          "type": "uint256"
        }
      ],
      "stateMutability": "view",
      "type": "function"
    },
    {
      "inputs": [
        {
          "internalType": "address payable",
          "name": "withdrawTo",
          "type": "address"
        }
      ],
      "name": "withdraw",
      "outputs": [],
      "stateMutability": "nonpayable",
      "type": "function"
    },
    {
      "stateMutability": "payable",
      "type": "receive"
    }
  ],
  "transactionHash": "0x5cbbf69c90b935e08d3cf9fe35e5c5328b46f3f04f8ebf5f1d8dc651ccf5a7b4",
  "args": [
    "0x08852bd946fEB11188d03249498E93Fbf210Cb36"
  ],
  "solcInputHash": "587c5ab58a0c38129fc7a9e6c6cab193",
  "bytecode": "0x608060405261000f4260b461009b565b6002556003805461ffff1916905534801561002957600080fd5b506040516105fc3803806105fc8339810160408190526100489161006d565b600080546001600160a01b0319166001600160a01b03929092169190911790556100bf565b60006020828403121561007e578081fd5b81516001600160a01b0381168114610094578182fd5b9392505050565b600082198211156100ba57634e487b7160e01b81526011600452602481fd5b500190565b61052e806100ce6000396000f3fe60806040526004361061007f5760003560e01c806342cde4e81161004e57806342cde4e81461010657806351cff8d91461012257806361461954146101425780639f75f2271461015757600080fd5b80631300a6d11461009357806327e235e3146100bb57806329dcb0cf146100e85780633a4b66f1146100fe57600080fd5b3661008e5761008c61018f565b005b600080fd5b34801561009f57600080fd5b506100a86101fc565b6040519081526020015b60405180910390f35b3480156100c757600080fd5b506100a86100d6366004610458565b60016020526000908152604090205481565b3480156100f457600080fd5b506100a860025481565b61008c61018f565b34801561011257600080fd5b506100a8670de0b6b3a764000081565b34801561012e57600080fd5b5061008c61013d366004610458565b610220565b34801561014e57600080fd5b5061008c61030d565b34801561016357600080fd5b50600054610177906001600160a01b031681565b6040516001600160a01b0390911681526020016100b2565b60025442111561019e57600080fd5b33600090815260016020526040812080543492906101bd90849061049b565b9091555050604080513381523460208201527febedb8b3c678666e7f36970bc8f57abf6d8fa2e828c0da91ea5b75bf68ed101a910160405180910390a1565b6000600254421061020d5750600090565b4260025461021b91906104b3565b905090565b60008054906101000a90046001600160a01b03166001600160a01b0316639d9a7fe96040518163ffffffff1660e01b815260040160206040518083038186803b15801561026c57600080fd5b505afa158015610280573d6000803e3d6000fd5b505050506040513d601f19601f820116820180604052508101906102a4919061047b565b156102ae57600080fd5b60035460ff1615156001146102c257600080fd5b6001600160a01b03811660008181526001602052604080822054905181156108fc0292818181858888f15050506001600160a01b039092166000908152600160205260408120555050565b60008054906101000a90046001600160a01b03166001600160a01b0316639d9a7fe96040518163ffffffff1660e01b815260040160206040518083038186803b15801561035957600080fd5b505afa15801561036d573d6000803e3d6000fd5b505050506040513d601f19601f82011682018060405250810190610391919061047b565b1561039b57600080fd5b60025442116103a957600080fd5b600354610100900460ff16156103be57600080fd5b670de0b6b3a764000047106104395760008054906101000a90046001600160a01b03166001600160a01b031663522e1177476040518263ffffffff1660e01b81526004016000604051808303818588803b15801561041b57600080fd5b505af115801561042f573d6000803e3d6000fd5b5050505050610447565b6003805460ff191660011790555b6003805461ff001916610100179055565b600060208284031215610469578081fd5b8135610474816104e0565b9392505050565b60006020828403121561048c578081fd5b81518015158114610474578182fd5b600082198211156104ae576104ae6104ca565b500190565b6000828210156104c5576104c56104ca565b500390565b634e487b7160e01b600052601160045260246000fd5b6001600160a01b03811681146104f557600080fd5b5056fea26469706673582212204f6780694468f32f0474ffc4ba966016bc25ac72f0491d481438d71fdc968c5164736f6c63430008040033",
  "devdoc": {
    "kind": "dev",
    "methods": {},
    "version": 1
  },
  "userdoc": {
    "kind": "user",
    "methods": {},
    "version": 1
  },
  "storageLayout": {
    "storage": [
      {
        "astId": 19,
        "contract": "contracts/Staker.sol:Staker",
        "label": "exampleExternalContract",
        "offset": 0,
        "slot": "0",
        "type": "t_contract(ExampleExternalContract)12"
      },
      {
        "astId": 35,
        "contract": "contracts/Staker.sol:Staker",
        "label": "balances",
        "offset": 0,
        "slot": "1",
        "type": "t_mapping(t_address,t_uint256)"
      },
      {
        "astId": 44,
        "contract": "contracts/Staker.sol:Staker",
        "label": "deadline",
        "offset": 0,
        "slot": "2",
        "type": "t_uint256"
      },
      {
        "astId": 47,
        "contract": "contracts/Staker.sol:Staker",
        "label": "openForWithdrawal",
        "offset": 0,
        "slot": "3",
        "type": "t_bool"
      },
      {
        "astId": 50,
        "contract": "contracts/Staker.sol:Staker",
        "label": "executed",
        "offset": 1,
        "slot": "3",
        "type": "t_bool"
      }
    ],
    "types": {
      "t_address": {
        "encoding": "inplace",
        "label": "address",
        "numberOfBytes": "20"
      },
      "t_bool": {
        "encoding": "inplace",
        "label": "bool",
        "numberOfBytes": "1"
      },
      "t_contract(ExampleExternalContract)12": {
        "encoding": "inplace",
        "label": "contract ExampleExternalContract",
        "numberOfBytes": "20"
      },
      "t_mapping(t_address,t_uint256)": {
        "encoding": "mapping",
        "key": "t_address",
        "label": "mapping(address => uint256)",
        "numberOfBytes": "32",
        "value": "t_uint256"
      },
      "t_uint256": {
        "encoding": "inplace",
        "label": "uint256",
        "numberOfBytes": "32"
      }
    }
  }
}